:100000000C9434000C9470000C9446000C94460040
:100010000C9446000C9446000C9446000C94460048
:100020000C9446000C9446000C9446000C94460038
:100030000C9446000C9446000C9446000C94460028
:100040000C9446000C9446000C9446000C94460018
:100050000C9446000C9446000C9446000C94460008
:100060000C9446000C94460011241FBECFEFD8E03C
:10007000DEBFCDBF21E0A0E0B1E001C01D92A43001
:10008000B207E1F70E94A5000C94CE000C9400008A
:1000900080E480937C0086E880937A000895ECE702
:1000A000F0E09081907F90839081892B8083EAE7B4
:1000B000F0E0808180648083808186FDFDCF809127
:1000C000780090917900089583EA84BD82E085BD2F
:1000D000569A089581E0809369008DBB78940895C5
:1000E0001F920F920FB60F9211248F939F938091BE
:1000F0000201909103010196909303018093020104
:100100009F918F910F900FBE0F901F901895209187
:100110000201309103014CE3429FC001439F900DC7
:100120001124909301018093000110920301109219
:10013000020108958CE284B9249881E58CBD08956C
:100140008EBD0DB407FEFDCF08950E9448000E94A9
:1001500064000E946A000E949A0082E00E944F00A0
:10016000969587959695879587BD2FE38DE093E0CB
:10017000215080409040E1F700C000000E948700BD
:100180008091000190910101892F0E94A00080912F
:100190000001909101010E94A000DFCFF894FFCFF1
:00000001FF
